{
  "contractName": "EHR",
  "abi": [
    {
      "anonymous": false,
      "inputs": [
        {
          "indexed": false,
          "internalType": "address",
          "name": "doctorId",
          "type": "address"
        }
      ],
      "name": "AccessGranted",
      "type": "event"
    },
    {
      "anonymous": false,
      "inputs": [
        {
          "indexed": false,
          "internalType": "address",
          "name": "doctorId",
          "type": "address"
        }
      ],
      "name": "DoctorAdded",
      "type": "event"
    },
    {
      "anonymous": false,
      "inputs": [
        {
          "indexed": false,
          "internalType": "address",
          "name": "doctorId",
          "type": "address"
        }
      ],
      "name": "EmergencyAccessGranted",
      "type": "event"
    },
    {
      "anonymous": false,
      "inputs": [
        {
          "indexed": false,
          "internalType": "address",
          "name": "personId",
          "type": "address"
        }
      ],
      "name": "EmergencyAdded",
      "type": "event"
    },
    {
      "anonymous": false,
      "inputs": [
        {
          "indexed": false,
          "internalType": "address",
          "name": "hospitalId",
          "type": "address"
        }
      ],
      "name": "HospitalAdded",
      "type": "event"
    },
    {
      "anonymous": false,
      "inputs": [
        {
          "indexed": false,
          "internalType": "address",
          "name": "patientId",
          "type": "address"
        }
      ],
      "name": "PatientAdded",
      "type": "event"
    },
    {
      "anonymous": false,
      "inputs": [
        {
          "indexed": false,
          "internalType": "string",
          "name": "cid",
          "type": "string"
        },
        {
          "indexed": false,
          "internalType": "address",
          "name": "patientId",
          "type": "address"
        },
        {
          "indexed": false,
          "internalType": "address",
          "name": "doctorId",
          "type": "address"
        }
      ],
      "name": "RecordAdded",
      "type": "event"
    },
    {
      "anonymous": false,
      "inputs": [
        {
          "indexed": false,
          "internalType": "address",
          "name": "patientId",
          "type": "address"
        }
      ],
      "name": "RequestAdded",
      "type": "event"
    },
    {
      "anonymous": false,
      "inputs": [
        {
          "indexed": false,
          "internalType": "address",
          "name": "personId",
          "type": "address"
        }
      ],
      "name": "manageEmergency",
      "type": "event"
    },
    {
      "inputs": [
        {
          "internalType": "address",
          "name": "",
          "type": "address"
        }
      ],
      "name": "doctors",
      "outputs": [
        {
          "internalType": "address",
          "name": "id",
          "type": "address"
        },
        {
          "internalType": "address",
          "name": "hospitalId",
          "type": "address"
        },
        {
          "internalType": "string",
          "name": "name",
          "type": "string"
        },
        {
          "internalType": "string",
          "name": "email",
          "type": "string"
        },
        {
          "internalType": "string",
          "name": "contact",
          "type": "string"
        },
        {
          "internalType": "string",
          "name": "work",
          "type": "string"
        }
      ],
      "stateMutability": "view",
      "type": "function",
      "constant": true
    },
    {
      "inputs": [
        {
          "internalType": "address",
          "name": "",
          "type": "address"
        }
      ],
      "name": "emergencyPerson",
      "outputs": [
        {
          "internalType": "address",
          "name": "id",
          "type": "address"
        },
        {
          "internalType": "address",
          "name": "patientId",
          "type": "address"
        },
        {
          "internalType": "string",
          "name": "name",
          "type": "string"
        },
        {
          "internalType": "string",
          "name": "relation",
          "type": "string"
        },
        {
          "internalType": "string",
          "name": "contact",
          "type": "string"
        },
        {
          "internalType": "string",
          "name": "location",
          "type": "string"
        },
        {
          "internalType": "bool",
          "name": "isAccess",
          "type": "bool"
        }
      ],
      "stateMutability": "view",
      "type": "function",
      "constant": true
    },
    {
      "inputs": [
        {
          "internalType": "address",
          "name": "",
          "type": "address"
        }
      ],
      "name": "hospitals",
      "outputs": [
        {
          "internalType": "address",
          "name": "id",
          "type": "address"
        },
        {
          "internalType": "string",
          "name": "name",
          "type": "string"
        },
        {
          "internalType": "string",
          "name": "contact",
          "type": "string"
        }
      ],
      "stateMutability": "view",
      "type": "function",
      "constant": true
    },
    {
      "inputs": [
        {
          "internalType": "address",
          "name": "",
          "type": "address"
        }
      ],
      "name": "patientDetails",
      "outputs": [
        {
          "internalType": "address",
          "name": "id",
          "type": "address"
        },
        {
          "internalType": "string",
          "name": "name",
          "type": "string"
        },
        {
          "internalType": "uint256",
          "name": "age",
          "type": "uint256"
        },
        {
          "internalType": "string",
          "name": "gender",
          "type": "string"
        },
        {
          "internalType": "string",
          "name": "contact",
          "type": "string"
        },
        {
          "internalType": "string",
          "name": "location",
          "type": "string"
        },
        {
          "internalType": "string",
          "name": "cause",
          "type": "string"
        }
      ],
      "stateMutability": "view",
      "type": "function",
      "constant": true
    },
    {
      "inputs": [
        {
          "internalType": "address",
          "name": "",
          "type": "address"
        }
      ],
      "name": "patients",
      "outputs": [
        {
          "internalType": "address",
          "name": "id",
          "type": "address"
        },
        {
          "components": [
            {
              "internalType": "address",
              "name": "id",
              "type": "address"
            },
            {
              "internalType": "string",
              "name": "name",
              "type": "string"
            },
            {
              "internalType": "uint256",
              "name": "age",
              "type": "uint256"
            },
            {
              "internalType": "string",
              "name": "gender",
              "type": "string"
            },
            {
              "internalType": "string",
              "name": "contact",
              "type": "string"
            },
            {
              "internalType": "string",
              "name": "location",
              "type": "string"
            },
            {
              "internalType": "string",
              "name": "cause",
              "type": "string"
            }
          ],
          "internalType": "struct EHR.PatientDetails",
          "name": "details",
          "type": "tuple"
        }
      ],
      "stateMutability": "view",
      "type": "function",
      "constant": true
    },
    {
      "inputs": [
        {
          "internalType": "address",
          "name": "_patientId",
          "type": "address"
        },
        {
          "internalType": "string",
          "name": "_name",
          "type": "string"
        },
        {
          "internalType": "uint256",
          "name": "_age",
          "type": "uint256"
        },
        {
          "internalType": "string",
          "name": "_gender",
          "type": "string"
        },
        {
          "internalType": "string",
          "name": "_contact",
          "type": "string"
        },
        {
          "internalType": "string",
          "name": "_location",
          "type": "string"
        },
        {
          "internalType": "string",
          "name": "_cause",
          "type": "string"
        }
      ],
      "name": "addPatient",
      "outputs": [],
      "stateMutability": "nonpayable",
      "type": "function"
    },
    {
      "inputs": [
        {
          "internalType": "address",
          "name": "_personId",
          "type": "address"
        },
        {
          "internalType": "string",
          "name": "_name",
          "type": "string"
        },
        {
          "internalType": "string",
          "name": "_relation",
          "type": "string"
        },
        {
          "internalType": "string",
          "name": "_contact",
          "type": "string"
        },
        {
          "internalType": "string",
          "name": "_location",
          "type": "string"
        },
        {
          "internalType": "bool",
          "name": "_access",
          "type": "bool"
        }
      ],
      "name": "addEmergencyAccess",
      "outputs": [],
      "stateMutability": "nonpayable",
      "type": "function"
    },
    {
      "inputs": [],
      "name": "viewEmergencyAccess",
      "outputs": [
        {
          "components": [
            {
              "internalType": "address",
              "name": "id",
              "type": "address"
            },
            {
              "internalType": "address",
              "name": "patientId",
              "type": "address"
            },
            {
              "internalType": "string",
              "name": "name",
              "type": "string"
            },
            {
              "internalType": "string",
              "name": "relation",
              "type": "string"
            },
            {
              "internalType": "string",
              "name": "contact",
              "type": "string"
            },
            {
              "internalType": "string",
              "name": "location",
              "type": "string"
            },
            {
              "internalType": "bool",
              "name": "isAccess",
              "type": "bool"
            }
          ],
          "internalType": "struct EHR.EmergencyAccess[]",
          "name": "",
          "type": "tuple[]"
        }
      ],
      "stateMutability": "view",
      "type": "function",
      "constant": true
    },
    {
      "inputs": [
        {
          "internalType": "address",
          "name": "_personId",
          "type": "address"
        },
        {
          "internalType": "bool",
          "name": "_access",
          "type": "bool"
        }
      ],
      "name": "manageEmergencyAccess",
      "outputs": [],
      "stateMutability": "nonpayable",
      "type": "function"
    },
    {
      "inputs": [
        {
          "internalType": "address",
          "name": "_doctorId",
          "type": "address"
        },
        {
          "internalType": "bool",
          "name": "_access",
          "type": "bool"
        }
      ],
      "name": "giveEmergencyAccess",
      "outputs": [],
      "stateMutability": "nonpayable",
      "type": "function"
    },
    {
      "inputs": [
        {
          "internalType": "address",
          "name": "_patientId",
          "type": "address"
        }
      ],
      "name": "getPatient",
      "outputs": [
        {
          "components": [
            {
              "internalType": "address",
              "name": "id",
              "type": "address"
            },
            {
              "internalType": "string",
              "name": "name",
              "type": "string"
            },
            {
              "internalType": "uint256",
              "name": "age",
              "type": "uint256"
            },
            {
              "internalType": "string",
              "name": "gender",
              "type": "string"
            },
            {
              "internalType": "string",
              "name": "contact",
              "type": "string"
            },
            {
              "internalType": "string",
              "name": "location",
              "type": "string"
            },
            {
              "internalType": "string",
              "name": "cause",
              "type": "string"
            }
          ],
          "internalType": "struct EHR.PatientDetails",
          "name": "",
          "type": "tuple"
        }
      ],
      "stateMutability": "view",
      "type": "function",
      "constant": true
    },
    {
      "inputs": [
        {
          "internalType": "address",
          "name": "_doctorId",
          "type": "address"
        },
        {
          "internalType": "address",
          "name": "_hospitalId",
          "type": "address"
        },
        {
          "internalType": "string",
          "name": "_name",
          "type": "string"
        },
        {
          "internalType": "string",
          "name": "_email",
          "type": "string"
        },
        {
          "internalType": "string",
          "name": "_contact",
          "type": "string"
        },
        {
          "internalType": "string",
          "name": "_work",
          "type": "string"
        }
      ],
      "name": "addDoctor",
      "outputs": [],
      "stateMutability": "nonpayable",
      "type": "function"
    },
    {
      "inputs": [
        {
          "internalType": "address",
          "name": "_doctorId",
          "type": "address"
        }
      ],
      "name": "getDoctor",
      "outputs": [
        {
          "components": [
            {
              "internalType": "address",
              "name": "id",
              "type": "address"
            },
            {
              "internalType": "address",
              "name": "hospitalId",
              "type": "address"
            },
            {
              "internalType": "string",
              "name": "name",
              "type": "string"
            },
            {
              "internalType": "string",
              "name": "email",
              "type": "string"
            },
            {
              "internalType": "string",
              "name": "contact",
              "type": "string"
            },
            {
              "internalType": "string",
              "name": "work",
              "type": "string"
            }
          ],
          "internalType": "struct EHR.Doctor",
          "name": "",
          "type": "tuple"
        }
      ],
      "stateMutability": "view",
      "type": "function",
      "constant": true
    },
    {
      "inputs": [
        {
          "internalType": "address",
          "name": "_hospitalId",
          "type": "address"
        },
        {
          "internalType": "string",
          "name": "_name",
          "type": "string"
        },
        {
          "internalType": "string",
          "name": "_contact",
          "type": "string"
        }
      ],
      "name": "addHospital",
      "outputs": [],
      "stateMutability": "nonpayable",
      "type": "function"
    },
    {
      "inputs": [
        {
          "internalType": "address",
          "name": "_hospitalId",
          "type": "address"
        }
      ],
      "name": "getHospital",
      "outputs": [
        {
          "components": [
            {
              "internalType": "address",
              "name": "id",
              "type": "address"
            },
            {
              "internalType": "string",
              "name": "name",
              "type": "string"
            },
            {
              "internalType": "string",
              "name": "contact",
              "type": "string"
            },
            {
              "components": [
                {
                  "internalType": "address",
                  "name": "id",
                  "type": "address"
                },
                {
                  "internalType": "address",
                  "name": "hospitalId",
                  "type": "address"
                },
                {
                  "internalType": "string",
                  "name": "name",
                  "type": "string"
                },
                {
                  "internalType": "string",
                  "name": "email",
                  "type": "string"
                },
                {
                  "internalType": "string",
                  "name": "contact",
                  "type": "string"
                },
                {
                  "internalType": "string",
                  "name": "work",
                  "type": "string"
                }
              ],
              "internalType": "struct EHR.Doctor[]",
              "name": "doctors",
              "type": "tuple[]"
            }
          ],
          "internalType": "struct EHR.Hospital",
          "name": "",
          "type": "tuple"
        }
      ],
      "stateMutability": "view",
      "type": "function",
      "constant": true
    },
    {
      "inputs": [
        {
          "internalType": "address",
          "name": "_patientId",
          "type": "address"
        }
      ],
      "name": "requestAccess",
      "outputs": [],
      "stateMutability": "nonpayable",
      "type": "function"
    },
    {
      "inputs": [
        {
          "internalType": "address",
          "name": "_patientId",
          "type": "address"
        }
      ],
      "name": "getRequests",
      "outputs": [
        {
          "components": [
            {
              "internalType": "bool",
              "name": "access",
              "type": "bool"
            },
            {
              "internalType": "address",
              "name": "doctorId",
              "type": "address"
            }
          ],
          "internalType": "struct EHR.Permission[]",
          "name": "",
          "type": "tuple[]"
        }
      ],
      "stateMutability": "view",
      "type": "function",
      "constant": true
    },
    {
      "inputs": [],
      "name": "getPatientIdEmergency",
      "outputs": [
        {
          "internalType": "address",
          "name": "",
          "type": "address"
        }
      ],
      "stateMutability": "view",
      "type": "function",
      "constant": true
    },
    {
      "inputs": [
        {
          "internalType": "address",
          "name": "_patientId",
          "type": "address"
        }
      ],
      "name": "getRequestsByEmergency",
      "outputs": [
        {
          "components": [
            {
              "internalType": "bool",
              "name": "access",
              "type": "bool"
            },
            {
              "internalType": "address",
              "name": "doctorId",
              "type": "address"
            }
          ],
          "internalType": "struct EHR.Permission[]",
          "name": "",
          "type": "tuple[]"
        }
      ],
      "stateMutability": "view",
      "type": "function",
      "constant": true
    },
    {
      "inputs": [
        {
          "internalType": "address",
          "name": "_doctorId",
          "type": "address"
        },
        {
          "internalType": "bool",
          "name": "_access",
          "type": "bool"
        }
      ],
      "name": "grantAccess",
      "outputs": [],
      "stateMutability": "nonpayable",
      "type": "function"
    },
    {
      "inputs": [
        {
          "internalType": "address",
          "name": "_patientId",
          "type": "address"
        },
        {
          "internalType": "address",
          "name": "_doctorId",
          "type": "address"
        }
      ],
      "name": "verifyAccess",
      "outputs": [
        {
          "internalType": "bool",
          "name": "",
          "type": "bool"
        }
      ],
      "stateMutability": "view",
      "type": "function",
      "constant": true
    },
    {
      "inputs": [
        {
          "internalType": "string",
          "name": "_cid",
          "type": "string"
        },
        {
          "internalType": "string",
          "name": "_fileName",
          "type": "string"
        },
        {
          "internalType": "address",
          "name": "_patientId",
          "type": "address"
        }
      ],
      "name": "addRecord",
      "outputs": [],
      "stateMutability": "nonpayable",
      "type": "function"
    },
    {
      "inputs": [
        {
          "internalType": "address",
          "name": "_patientId",
          "type": "address"
        }
      ],
      "name": "getRecords",
      "outputs": [
        {
          "components": [
            {
              "internalType": "string",
              "name": "cid",
              "type": "string"
            },
            {
              "internalType": "string",
              "name": "fileName",
              "type": "string"
            },
            {
              "internalType": "address",
              "name": "patientId",
              "type": "address"
            },
            {
              "internalType": "address",
              "name": "doctorId",
              "type": "address"
            },
            {
              "internalType": "uint256",
              "name": "timeAdded",
              "type": "uint256"
            }
          ],
          "internalType": "struct EHR.Record[]",
          "name": "",
          "type": "tuple[]"
        }
      ],
      "stateMutability": "view",
      "type": "function",
      "constant": true
    },
    {
      "inputs": [
        {
          "internalType": "address",
          "name": "_patientId",
          "type": "address"
        }
      ],
      "name": "getRecordsDoctor",
      "outputs": [
        {
          "components": [
            {
              "internalType": "string",
              "name": "cid",
              "type": "string"
            },
            {
              "internalType": "string",
              "name": "fileName",
              "type": "string"
            },
            {
              "internalType": "address",
              "name": "patientId",
              "type": "address"
            },
            {
              "internalType": "address",
              "name": "doctorId",
              "type": "address"
            },
            {
              "internalType": "uint256",
              "name": "timeAdded",
              "type": "uint256"
            }
          ],
          "internalType": "struct EHR.Record[]",
          "name": "",
          "type": "tuple[]"
        }
      ],
      "stateMutability": "view",
      "type": "function",
      "constant": true
    },
    {
      "inputs": [],
      "name": "getSenderRole",
      "outputs": [
        {
          "internalType": "string",
          "name": "",
          "type": "string"
        }
      ],
      "stateMutability": "view",
      "type": "function",
      "constant": true
    },
    {
      "inputs": [
        {
          "internalType": "address",
          "name": "_patientId",
          "type": "address"
        }
      ],
      "name": "getPatientExists",
      "outputs": [
        {
          "internalType": "bool",
          "name": "",
          "type": "bool"
        }
      ],
      "stateMutability": "view",
      "type": "function",
      "constant": true
    },
    {
      "inputs": [
        {
          "internalType": "address",
          "name": "_hospitalId",
          "type": "address"
        }
      ],
      "name": "getHospitalExists",
      "outputs": [
        {
          "internalType": "bool",
          "name": "",
          "type": "bool"
        }
      ],
      "stateMutability": "view",
      "type": "function",
      "constant": true
    },
    {
      "inputs": [
        {
          "internalType": "address",
          "name": "_doctorId",
          "type": "address"
        }
      ],
      "name": "getDoctorExists",
      "outputs": [
        {
          "internalType": "bool",
          "name": "",
          "type": "bool"
        }
      ],
      "stateMutability": "view",
      "type": "function",
      "constant": true
    }
  ],
  "bytecode": "0x608060405234801561001057600080fd5b50615128806100206000396000f3fe608060405234801561001057600080fd5b50600436106101e1576000357c010000000000000000000000000000000000000000000000000000000090048063828566fc11610116578063b5368e20116100b4578063c49b09b51161008e578063c49b09b514610454578063cee7314e14610474578063f093cf8014610487578063fd7fe115146104a957600080fd5b8063b5368e201461040e578063b8c2ead41461042e578063c3ddf2341461044157600080fd5b8063a0076e84116100f0578063a0076e84146103ae578063a9583c22146103c1578063a9f416b4146103e6578063af18179c146103f957600080fd5b8063828566fc146103625780639141f8d7146103755780639cb040261461038857600080fd5b80633a88162e1161018357806375d3a93c1161015d57806375d3a93c146102ec5780637ad7e6221461030f5780637bc769ed1461032f578063804e44f31461034257600080fd5b80633a88162e146102b157806356daecb3146102c6578063649d62c2146102d957600080fd5b806313be9d7a116101bf57806313be9d7a1461024b578063176d74611461026b578063229b97c51461027e5780632f04e0641461029157600080fd5b8063022cb271146101e65780630869cfbc146101fb57806310c5f02514610225575b600080fd5b6101f96101f4366004614401565b6104bc565b005b61020e610209366004614401565b6106fd565b60405161021c929190614512565b60405180910390f35b610238610233366004614401565b610a22565b60405161021c979695949392919061453c565b610253610d0f565b604051600160a060020a03909116815260200161021c565b6101f9610279366004614666565b610e5c565b6101f961028c366004614762565b611054565b6102a461029f366004614401565b611209565b60405161021c9190614818565b6102b96115c6565b60405161021c919061482b565b6101f96102d436600461483e565b6117af565b6101f96102e73660046148b2565b611a36565b6102ff6102fa36600461497f565b611d73565b604051901515815260200161021c565b61032261031d366004614401565b611ece565b60405161021c91906149a9565b6102ff61033d366004614401565b612111565b610355610350366004614401565b612173565b60405161021c9190614a59565b6101f9610370366004614ab3565b61226a565b6101f9610383366004614762565b6123b5565b61039b610396366004614401565b61265c565b60405161021c9796959493929190614b27565b6103226103bc366004614401565b6128c7565b6103d46103cf366004614401565b612ac4565b60405161021c96959493929190614ba4565b6103556103f4366004614401565b612d28565b610401612f1c565b60405161021c9190614c17565b61042161041c366004614401565b613277565b60405161021c9190614d08565b6102ff61043c366004614401565b613664565b6102ff61044f366004614401565b6136be565b610467610462366004614401565b613718565b60405161021c9190614d1b565b6101f9610482366004614dca565b613c50565b61049a610495366004614401565b6140a9565b60405161021c93929190614e97565b6101f96104b7366004614762565b6141e6565b33600081815260016020526040902054600160a060020a0316146104fe5760405160e560020a62461bcd0281526004016104f590614ed5565b60405180910390fd5b600160a060020a038082166000818152602081905260409020548392161461053b5760405160e560020a62461bcd0281526004016104f590614f0c565b604080518082019091526000808252336020830152805b600160a060020a0385166000908152602081905260409020600901548110156105f5578260200151600160a060020a031660008087600160a060020a0316600160a060020a0316815260200190815260200160002060090182815481106105bb576105bb614f43565b6000918252602090912001546101009004600160a060020a0316036105e357600191506105f5565b806105ed81614f5c565b915050610552565b5080156106475760405160e560020a62461bcd02815260206004820152601760248201527f7265717565737420616c7265616479206578697374732100000000000000000060448201526064016104f5565b600160a060020a03848116600081815260208181526040808320600901805460018101825590845292829020875193018054888401519096166101000274ffffffffffffffffffffffffffffffffffffffff00199415159490941674ffffffffffffffffffffffffffffffffffffffffff199096169590951792909217909355519081527f909741ae0744d37c47ad9cda0ddad8dbd4658c04bec8376ca68fe3d61aea1d2491015b60405180910390a150505050565b600060208181529181526040908190208054825160e08101909352600182018054600160a060020a03908116855260028401805491909316959394939192918401919061074990614f86565b80601f016020809104026020016040519081016040528092919081815260200182805461077590614f86565b80156107c25780601f10610797576101008083540402835291602001916107c2565b820191906000526020600020905b8154815290600101906020018083116107a557829003601f168201915b50505050508152602001600282015481526020016003820180546107e590614f86565b80601f016020809104026020016040519081016040528092919081815260200182805461081190614f86565b801561085e5780601f106108335761010080835404028352916020019161085e565b820191906000526020600020905b81548152906001019060200180831161084157829003601f168201915b5050505050815260200160048201805461087790614f86565b80601f01602080910402602001604051908101604052809291908181526020018280546108a390614f86565b80156108f05780601f106108c5576101008083540402835291602001916108f0565b820191906000526020600020905b8154815290600101906020018083116108d357829003601f168201915b5050505050815260200160058201805461090990614f86565b80601f016020809104026020016040519081016040528092919081815260200182805461093590614f86565b80156109825780601f1061095757610100808354040283529160200191610982565b820191906000526020600020905b81548152906001019060200180831161096557829003601f168201915b5050505050815260200160068201805461099b90614f86565b80601f01602080910402602001604051908101604052809291908181526020018280546109c790614f86565b8015610a145780601f106109e957610100808354040283529160200191610a14565b820191906000526020600020905b8154815290600101906020018083116109f757829003601f168201915b505050505081525050905082565b60046020526000908152604090208054600182018054600160a060020a039092169291610a4e90614f86565b80601f0160208091040260200160405190810160405280929190818152602001828054610a7a90614f86565b8015610ac75780601f10610a9c57610100808354040283529160200191610ac7565b820191906000526020600020905b815481529060010190602001808311610aaa57829003601f168201915b505050505090806002015490806003018054610ae290614f86565b80601f0160208091040260200160405190810160405280929190818152602001828054610b0e90614f86565b8015610b5b5780601f10610b3057610100808354040283529160200191610b5b565b820191906000526020600020905b815481529060010190602001808311610b3e57829003601f168201915b505050505090806004018054610b7090614f86565b80601f0160208091040260200160405190810160405280929190818152602001828054610b9c90614f86565b8015610be95780601f10610bbe57610100808354040283529160200191610be9565b820191906000526020600020905b815481529060010190602001808311610bcc57829003601f168201915b505050505090806005018054610bfe90614f86565b80601f0160208091040260200160405190810160405280929190818152602001828054610c2a90614f86565b8015610c775780601f10610c4c57610100808354040283529160200191610c77565b820191906000526020600020905b815481529060010190602001808311610c5a57829003601f168201915b505050505090806006018054610c8c90614f86565b80601f0160208091040260200160405190810160405280929190818152602001828054610cb890614f86565b8015610d055780601f10610cda57610100808354040283529160200191610d05565b820191906000526020600020905b815481529060010190602001808311610ce857829003601f168201915b5050505050905087565b600080805b33600090815260036020908152604080832060010154600160a060020a03168352908290529020600a0154811015610e185733600081815260036020908152604080832060010154600160a060020a03168352908290529020600a01805483908110610d8257610d82614f43565b6000918252602090912060079091020154600160a060020a031603610e065733600090815260036020908152604080832060010154600160a060020a03168352908290529020600a01805482908110610ddd57610ddd614f43565b600091825260209091206006600790920201015460ff161515600103610e065760019150610e18565b80610e1081614f5c565b915050610d14565b5080610e395760405160e560020a62461bcd0281526004016104f590614fbd565b33600090815260036020526040902060010154600160a060020a031691505b5090565b33600081815260016020526040902054600160a060020a031614610e955760405160e560020a62461bcd0281526004016104f590614ed5565b600160a060020a0380881660008181526020819052604090205490911603610f025760405160e560020a62461bcd02815260206004820152601c60248201527f546869732070617469656e7420616c7265616479206578697374732e0000000060448201526064016104f5565b600160a060020a0387166000818152602081815260409091208054600160a060020a0319908116841782556001820180549091169093179092558751610f4e926002019189019061435a565b50600160a060020a038716600090815260208181526040909120600381018790558551610f839260049092019187019061435a565b50600160a060020a0387166000908152602081815260409091208451610fb19260059092019186019061435a565b50600160a060020a0387166000908152602081815260409091208351610fdf9260069092019185019061435a565b50600160a060020a038716600090815260208181526040909120825161100d9260079092019184019061435a565b50604051600160a060020a03881681527fa58cff07db0adda3ab7a40bd2f18ab57210bf38391a52ffd2e8eee6b8bdec71a906020015b60405180910390a150505050505050565b600160a060020a03808316600081815260036020526040902054849216146110c15760405160e560020a62461bcd02815260206004820152601560248201527f506572736f6e20646f6573206e6f74206578697374000000000000000000000060448201526064016104f5565b33600081815260208190526040902054600160a060020a0316146110fa5760405160e560020a62461bcd0281526004016104f59061501a565b60005b336000908152602081905260409020600a01548110156111c657336000908152602081905260409020600a018054600160a060020a03861691908390811061114757611147614f43565b6000918252602090912060079091020154600160a060020a0316036111b457336000908152602081905260409020600a0180548491908390811061118d5761118d614f43565b60009182526020909120600790910201600601805460ff19169115159190911790556111c6565b806111be81614f5c565b9150506110fd565b50604051600160a060020a03841681527fae6fe759a8abaf673035859fc68c7bc1090c664022a3fe9f8eeddc80e50d70f5906020015b60405180910390a1505050565b6112546040518060c001604052806000600160a060020a031681526020016000600160a060020a03168152602001606081526020016060815260200160608152602001606081525090565b33733b44d6493f7866b250637b5a03c71f779aeca7411461128a5760405160e560020a62461bcd0281526004016104f590615051565b600160a060020a03808316600081815260016020526040902054849216146112c75760405160e560020a62461bcd0281526004016104f590615088565b6040805160c081018252600160a060020a03808616600081815260016020818152868320805486168752808301549095168187015292825290915260029091018054919383019161131790614f86565b80601f016020809104026020016040519081016040528092919081815260200182805461134390614f86565b80156113905780601f1061136557610100808354040283529160200191611390565b820191906000526020600020905b81548152906001019060200180831161137357829003601f168201915b505050505081526020016001600087600160a060020a0316600160a060020a0316815260200190815260200160002060030180546113cd90614f86565b80601f01602080910402602001604051908101604052809291908181526020018280546113f990614f86565b80156114465780601f1061141b57610100808354040283529160200191611446565b820191906000526020600020905b81548152906001019060200180831161142957829003601f168201915b505050505081526020016001600087600160a060020a0316600160a060020a03168152602001908152602001600020600401805461148390614f86565b80601f01602080910402602001604051908101604052809291908181526020018280546114af90614f86565b80156114fc5780601f106114d1576101008083540402835291602001916114fc565b820191906000526020600020905b8154815290600101906020018083116114df57829003601f168201915b505050505081526020016001600087600160a060020a0316600160a060020a03168152602001908152602001600020600501805461153990614f86565b80601f016020809104026020016040519081016040528092919081815260200182805461156590614f86565b80156115b25780601f10611587576101008083540402835291602001916115b2565b820191906000526020600020905b81548152906001019060200180831161159557829003601f168201915b505050919092525090935050505b50919050565b33600081815260016020526040902054606091600160a060020a0390911603611621575060408051808201909152600681527f646f63746f720000000000000000000000000000000000000000000000000000602082015290565b33600081815260208190526040902054600160a060020a031603611677575060408051808201909152600781527f70617469656e7400000000000000000000000000000000000000000000000000602082015290565b733b44d6493f7866b250637b5a03c71f779aeca7401933016116cb575060408051808201909152600581527f61646d696e000000000000000000000000000000000000000000000000000000602082015290565b33600081815260026020526040902054600160a060020a031603611721575060408051808201909152600881527f686f73706974616c000000000000000000000000000000000000000000000000602082015290565b33600081815260036020526040902054600160a060020a031603611777575060408051808201909152600f81527f656d657267656e6379506572736f6e0000000000000000000000000000000000602082015290565b5060408051808201909152600781527f756e6b6e6f776e00000000000000000000000000000000000000000000000000602082015290565b33600081815260016020526040902054600160a060020a0316146117e85760405160e560020a62461bcd0281526004016104f590614ed5565b600160a060020a03808216600081815260208190526040902054839216146118255760405160e560020a62461bcd0281526004016104f590614f0c565b816000805b600160a060020a0383166000908152602081905260409020600901548110156118df57600160a060020a038316600090815260208190526040812060090180548390811061187a5761187a614f43565b60009182526020918290206040805180820190915291015460ff8116151582526101009004600160a060020a031691810182905291503390036118cc57805115156001036118cc5760019250506118df565b50806118d781614f5c565b91505061182a565b506001811515146119355760405160e560020a62461bcd02815260206004820152600d60248201527f4163636573732044656e6965640000000000000000000000000000000000000060448201526064016104f5565b6040805160a0810182528781526020808201889052600160a060020a038716828401819052336060840152426080840152600090815280825292832060080180546001810182559084529281902082518051939485946005909102909201926119a39284929091019061435a565b5060208281015180516119bc926001850192019061435a565b50604082810151600283018054600160a060020a03928316600160a060020a0319918216179091556060850151600385018054919093169116179055608090920151600490910155517f79439a93ba0b8067e556b3942a78ac58d991c58e2e23041c4e7aa1c446fc118890611043908990889033906150bf565b33600081815260208190526040902054600160a060020a03168114611a705760405160e560020a62461bcd0281526004016104f590614f0c565b33600081815260208190526040902054600160a060020a031614611aa95760405160e560020a62461bcd0281526004016104f59061501a565b6000805b336000908152602081905260409020600a0154811015611b7557336000908152602081905260409020600a018054600160a060020a038b16919083908110611af757611af7614f43565b6000918252602090912060079091020154600160a060020a031603611b6357336000908152602081905260409020600a01805482908110611b3a57611b3a614f43565b600091825260209091206006600790920201015460ff161515600103611b635760019150611b75565b80611b6d81614f5c565b915050611aad565b508015611bed5760405160e560020a62461bcd02815260206004820152602660248201527f706572736f6e20616c726561647920696e2074686520456d657267656e63792060448201527f416363657373000000000000000000000000000000000000000000000000000060648201526084016104f5565b6040805160e081018252600160a060020a038a81168083523360208085018281528587018e8152606087018e9052608087018d905260a087018c90528a151560c08801526000858152600384528881208054600160a060020a0319908116909717815560019081018054881687179055948152808452978820600a01805480860182559089529783902087516007909902018054861698871698909817885590519287018054909416929094169190911790915590518051929384939092611cbc92600285019291019061435a565b5060608201518051611cd891600384019160209091019061435a565b5060808201518051611cf491600484019160209091019061435a565b5060a08201518051611d1091600584019160209091019061435a565b5060c091909101516006909101805460ff1916911515919091179055604051600160a060020a038a1681527f17b8a9113994e605fc0c636a08a9257368217129134929e86dc8cbc5b31edd489060200160405180910390a1505050505050505050565b336000818152600160205260408120549091600160a060020a0390911614611db05760405160e560020a62461bcd0281526004016104f590614ed5565b600160a060020a0380841660008181526020819052604090205485921614611ded5760405160e560020a62461bcd0281526004016104f590614f0c565b6000805b600160a060020a038616600090815260208190526040902060090154811015611ec557600160a060020a03868116600090815260208190526040902060090180549187169183908110611e4657611e46614f43565b6000918252602090912001546101009004600160a060020a031603611eb357600160a060020a0386166000908152602081905260409020600901805482908110611e9257611e92614f43565b60009182526020909120015460ff161515600103611eb35760019150611ec5565b80611ebd81614f5c565b915050611df1565b50949350505050565b33600081815260016020526040902054606091600160a060020a0390911614611f0c5760405160e560020a62461bcd0281526004016104f590614ed5565b600160a060020a0380831660008181526020819052604090205484921614611f495760405160e560020a62461bcd0281526004016104f590614f0c565b600160a060020a03831660009081526020818152604080832060080180548251818502810185019093528083529193909284015b8282101561210557838290600052602060002090600502016040518060a0016040529081600082018054611fb090614f86565b80601f0160208091040260200160405190810160405280929190818152602001828054611fdc90614f86565b80156120295780601f10611ffe57610100808354040283529160200191612029565b820191906000526020600020905b81548152906001019060200180831161200c57829003601f168201915b5050505050815260200160018201805461204290614f86565b80601f016020809104026020016040519081016040528092919081815260200182805461206e90614f86565b80156120bb5780601f10612090576101008083540402835291602001916120bb565b820191906000526020600020905b81548152906001019060200180831161209e57829003601f168201915b50505091835250506002820154600160a060020a03908116602080840191909152600384015490911660408301526004909201546060909101529082526001929092019101611f7d565b50505050915050919050565b336000818152600160205260408120549091600160a060020a039091161461214e5760405160e560020a62461bcd0281526004016104f590614ed5565b50600160a060020a03808216600081815260208190526040902054909116145b919050565b600160a060020a0380821660008181526020819052604090205460609284929116146121b45760405160e560020a62461bcd0281526004016104f590614f0c565b33600081815260208190526040902054600160a060020a0316146121ed5760405160e560020a62461bcd0281526004016104f59061501a565b600160a060020a03831660009081526020818152604080832060090180548251818502810185019093528083529193909284015b82821015612105576000848152602090819020604080518082019091529084015460ff8116151582526101009004600160a060020a031681830152825260019092019101612221565b33733b44d6493f7866b250637b5a03c71f779aeca741146122a05760405160e560020a62461bcd0281526004016104f590615051565b600160a060020a038084166000818152600260205260409020549091160361230d5760405160e560020a62461bcd02815260206004820152601d60248201527f5468697320486f73706974616c20616c7265616479206578697374732e00000060448201526064016104f5565b600160a060020a03831660008181526002602090815260409091208054600160a060020a0319169092178255835161234b926001019185019061435a565b50600160a060020a0383166000908152600260208181526040909220835161237b9391909201919084019061435a565b50604051600160a060020a03841681527f98b422b4248851ae9e727f5fd491b255462f5872bd0493c1ddf7308ccedfa1a2906020016111fc565b6000805b33600090815260036020908152604080832060010154600160a060020a03168352908290529020600a01548110156124bd5733600081815260036020908152604080832060010154600160a060020a03168352908290529020600a0180548390811061242757612427614f43565b6000918252602090912060079091020154600160a060020a0316036124ab5733600090815260036020908152604080832060010154600160a060020a03168352908290529020600a0180548290811061248257612482614f43565b600091825260209091206006600790920201015460ff1615156001036124ab57600191506124bd565b806124b581614f5c565b9150506123b9565b50806124de5760405160e560020a62461bcd0281526004016104f590614fbd565b600160a060020a038084166000818152600160205260409020548592161461251b5760405160e560020a62461bcd0281526004016104f590615088565b60005b33600090815260036020908152604080832060010154600160a060020a03168352908290529020600901548110156126225733600090815260036020908152604080832060010154600160a060020a039081168452918390529091206009018054918716918390811061259357612593614f43565b6000918252602090912001546101009004600160a060020a0316036126105733600090815260036020908152604080832060010154600160a060020a031683529082905290206009018054859190839081106125f1576125f1614f43565b6000918252602090912001805460ff1916911515919091179055612622565b8061261a81614f5c565b91505061251e565b50604051600160a060020a03851681527f9293f6cd4a11af6eeab5ae170a44c36780f8e6f1c0aca9e9672b6a04f8d43231906020016106ef565b600360205260009081526040902080546001820154600283018054600160a060020a0393841694929093169261269190614f86565b80601f01602080910402602001604051908101604052809291908181526020018280546126bd90614f86565b801561270a5780601f106126df5761010080835404028352916020019161270a565b820191906000526020600020905b8154815290600101906020018083116126ed57829003601f168201915b50505050509080600301805461271f90614f86565b80601f016020809104026020016040519081016040528092919081815260200182805461274b90614f86565b80156127985780601f1061276d57610100808354040283529160200191612798565b820191906000526020600020905b81548152906001019060200180831161277b57829003601f168201915b5050505050908060040180546127ad90614f86565b80601f01602080910402602001604051908101604052809291908181526020018280546127d990614f86565b80156128265780601f106127fb57610100808354040283529160200191612826565b820191906000526020600020905b81548152906001019060200180831161280957829003601f168201915b50505050509080600501805461283b90614f86565b80601f016020809104026020016040519081016040528092919081815260200182805461286790614f86565b80156128b45780601f10612889576101008083540402835291602001916128b4565b820191906000526020600020905b81548152906001019060200180831161289757829003601f168201915b5050506006909301549192505060ff1687565b600160a060020a0380821660008181526020819052604090205460609284929116146129085760405160e560020a62461bcd0281526004016104f590614f0c565b600160a060020a03831660009081526020818152604080832060080180548251818502810185019093528083529193909284015b8282101561210557838290600052602060002090600502016040518060a001604052908160008201805461296f90614f86565b80601f016020809104026020016040519081016040528092919081815260200182805461299b90614f86565b80156129e85780601f106129bd576101008083540402835291602001916129e8565b820191906000526020600020905b8154815290600101906020018083116129cb57829003601f168201915b50505050508152602001600182018054612a0190614f86565b80601f0160208091040260200160405190810160405280929190818152602001828054612a2d90614f86565b8015612a7a5780601f10612a4f57610100808354040283529160200191612a7a565b820191906000526020600020905b815481529060010190602001808311612a5d57829003601f168201915b50505091835250506002820154600160a060020a0390811660208084019190915260038401549091166040830152600490920154606090910152908252600192909201910161293c565b6001602081905260009182526040909120805491810154600282018054600160a060020a03948516949092169291612afb90614f86565b80601f0160208091040260200160405190810160405280929190818152602001828054612b2790614f86565b8015612b745780601f10612b4957610100808354040283529160200191612b74565b820191906000526020600020905b815481529060010190602001808311612b5757829003601f168201915b505050505090806003018054612b8990614f86565b80601f0160208091040260200160405190810160405280929190818152602001828054612bb590614f86565b8015612c025780601f10612bd757610100808354040283529160200191612c02565b820191906000526020600020905b815481529060010190602001808311612be557829003601f168201915b505050505090806004018054612c1790614f86565b80601f0160208091040260200160405190810160405280929190818152602001828054612c4390614f86565b8015612c905780601f10612c6557610100808354040283529160200191612c90565b820191906000526020600020905b815481529060010190602001808311612c7357829003601f168201915b505050505090806005018054612ca590614f86565b80601f0160208091040260200160405190810160405280929190818152602001828054612cd190614f86565b8015612d1e5780601f10612cf357610100808354040283529160200191612d1e565b820191906000526020600020905b815481529060010190602001808311612d0157829003601f168201915b5050505050905086565b600160a060020a038082166000818152602081905260409020546060928492911614612d695760405160e560020a62461bcd0281526004016104f590614f0c565b6000805b33600090815260036020908152604080832060010154600160a060020a03168352908290529020600a0154811015612e715733600081815260036020908152604080832060010154600160a060020a03168352908290529020600a01805483908110612ddb57612ddb614f43565b6000918252602090912060079091020154600160a060020a031603612e5f5733600090815260036020908152604080832060010154600160a060020a03168352908290529020600a01805482908110612e3657612e36614f43565b600091825260209091206006600790920201015460ff161515600103612e5f5760019150612e71565b80612e6981614f5c565b915050612d6d565b5080612e925760405160e560020a62461bcd0281526004016104f590614fbd565b600160a060020a03841660009081526020818152604080832060090180548251818502810185019093528083529193909284015b82821015612f0f576000848152602090819020604080518082019091529084015460ff8116151582526101009004600160a060020a031681830152825260019092019101612ec6565b5050505092505050919050565b3360008181526020819052604090205460609190600160a060020a03168114612f5a5760405160e560020a62461bcd0281526004016104f590614f0c565b33600081815260208190526040902054600160a060020a031614612f935760405160e560020a62461bcd0281526004016104f59061501a565b33600090815260208181526040808320600a0180548251818502810185019093528083529193909284015b8282101561326d5760008481526020908190206040805160e081018252600786029092018054600160a060020a039081168452600182015416938301939093526002830180549293929184019161301490614f86565b80601f016020809104026020016040519081016040528092919081815260200182805461304090614f86565b801561308d5780601f106130625761010080835404028352916020019161308d565b820191906000526020600020905b81548152906001019060200180831161307057829003601f168201915b505050505081526020016003820180546130a690614f86565b80601f01602080910402602001604051908101604052809291908181526020018280546130d290614f86565b801561311f5780601f106130f45761010080835404028352916020019161311f565b820191906000526020600020905b81548152906001019060200180831161310257829003601f168201915b5050505050815260200160048201805461313890614f86565b80601f016020809104026020016040519081016040528092919081815260200182805461316490614f86565b80156131b15780601f10613186576101008083540402835291602001916131b1565b820191906000526020600020905b81548152906001019060200180831161319457829003601f168201915b505050505081526020016005820180546131ca90614f86565b80601f01602080910402602001604051908101604052809291908181526020018280546131f690614f86565b80156132435780601f1061321857610100808354040283529160200191613243565b820191906000526020600020905b81548152906001019060200180831161322657829003601f168201915b50505091835250506006919091015460ff1615156020918201529082526001929092019101612fbe565b5050505091505090565b6132c06040518060e001604052806000600160a060020a031681526020016060815260200160008152602001606081526020016060815260200160608152602001606081525090565b33600081815260016020526040902054600160a060020a0316146132f95760405160e560020a62461bcd0281526004016104f590614ed5565b600160a060020a03808316600081815260208190526040902054849216146133365760405160e560020a62461bcd0281526004016104f590614f0c565b6040805160e081018252600160a060020a03808616600081815260208181529481206001810154909316845290815280845260029091018054919383019161337d90614f86565b80601f01602080910402602001604051908101604052809291908181526020018280546133a990614f86565b80156133f65780601f106133cb576101008083540402835291602001916133f6565b820191906000526020600020905b8154815290600101906020018083116133d957829003601f168201915b5050509183525050600160a060020a0386166000818152602081815260408083206003810154838701529383529190526004909101805491909201919061343c90614f86565b80601f016020809104026020016040519081016040528092919081815260200182805461346890614f86565b80156134b55780601f1061348a576101008083540402835291602001916134b5565b820191906000526020600020905b81548152906001019060200180831161349857829003601f168201915b5050505050815260200160008087600160a060020a0316600160a060020a0316815260200190815260200160002060010160040180546134f490614f86565b80601f016020809104026020016040519081016040528092919081815260200182805461352090614f86565b801561356d5780601f106135425761010080835404028352916020019161356d565b820191906000526020600020905b81548152906001019060200180831161355057829003601f168201915b5050505050815260200160008087600160a060020a0316600160a060020a0316815260200190815260200160002060010160050180546135ac90614f86565b80601f01602080910402602001604051908101604052809291908181526020018280546135d890614f86565b80156136255780601f106135fa57610100808354040283529160200191613625565b820191906000526020600020905b81548152906001019060200180831161360857829003601f168201915b5050505050815260200160008087600160a060020a0316600160a060020a03168152602001908152602001600020600101600601805461153990614f86565b600033733b44d6493f7866b250637b5a03c71f779aeca7411461369c5760405160e560020a62461bcd0281526004016104f590615051565b50600160a060020a039081166000818152600260205260409020549091161490565b600033733b44d6493f7866b250637b5a03c71f779aeca741146136f65760405160e560020a62461bcd0281526004016104f590615051565b50600160a060020a039081166000818152600160205260409020549091161490565b61374c60405180608001604052806000600160a060020a031681526020016060815260200160608152602001606081525090565b33733b44d6493f7866b250637b5a03c71f779aeca741146137825760405160e560020a62461bcd0281526004016104f590615051565b600160a060020a03808316600081815260026020526040902054909116146137ef5760405160e560020a62461bcd02815260206004820152601360248201527f686f73706974616c206e6f74206578697374730000000000000000000000000060448201526064016104f5565b60408051608081018252600160a060020a038085166000818152600260208181529582208054909416855291815290845260019091018054919383019161383590614f86565b80601f016020809104026020016040519081016040528092919081815260200182805461386190614f86565b80156138ae5780601f10613883576101008083540402835291602001916138ae565b820191906000526020600020905b81548152906001019060200180831161389157829003601f168201915b505050505081526020016002600086600160a060020a0316600160a060020a0316815260200190815260200160002060020180546138eb90614f86565b80601f016020809104026020016040519081016040528092919081815260200182805461391790614f86565b80156139645780601f1061393957610100808354040283529160200191613964565b820191906000526020600020905b81548152906001019060200180831161394757829003601f168201915b5050509183525050600160a060020a03851660009081526002602090815260408083206003018054825181850281018501909352808352948301949193909284015b82821015613c435760008481526020908190206040805160c081018252600686029092018054600160a060020a03908116845260018201541693830193909352600283018054929392918401916139fc90614f86565b80601f0160208091040260200160405190810160405280929190818152602001828054613a2890614f86565b8015613a755780601f10613a4a57610100808354040283529160200191613a75565b820191906000526020600020905b815481529060010190602001808311613a5857829003601f168201915b50505050508152602001600382018054613a8e90614f86565b80601f0160208091040260200160405190810160405280929190818152602001828054613aba90614f86565b8015613b075780601f10613adc57610100808354040283529160200191613b07565b820191906000526020600020905b815481529060010190602001808311613aea57829003601f168201915b50505050508152602001600482018054613b2090614f86565b80601f0160208091040260200160405190810160405280929190818152602001828054613b4c90614f86565b8015613b995780601f10613b6e57610100808354040283529160200191613b99565b820191906000526020600020905b815481529060010190602001808311613b7c57829003601f168201915b50505050508152602001600582018054613bb290614f86565b80601f0160208091040260200160405190810160405280929190818152602001828054613bde90614f86565b8015613c2b5780601f10613c0057610100808354040283529160200191613c2b565b820191906000526020600020905b815481529060010190602001808311613c0e57829003601f168201915b505050505081525050815260200190600101906139a6565b5050509152509392505050565b33733b44d6493f7866b250637b5a03c71f779aeca74114613c865760405160e560020a62461bcd0281526004016104f590615051565b600160a060020a0380871660008181526001602052604090205490911603613cf35760405160e560020a62461bcd02815260206004820152601b60248201527f5468697320646f63746f7220616c7265616479206578697374732e000000000060448201526064016104f5565b600160a060020a0380871660008181526001602090815260408083208054600160a060020a03191690941790935588841680835260029091529190205490911614613d835760405160e560020a62461bcd02815260206004820152601360248201527f486f73706974616c206e6f74206578697374730000000000000000000000000060448201526064016104f5565b600160a060020a0386811660009081526001602081815260409092209081018054600160a060020a031916938916939093179092558551613dca926002019187019061435a565b50600160a060020a03861660009081526001602090815260409091208451613dfa9260039092019186019061435a565b50600160a060020a03861660009081526001602090815260409091208351613e2a9260049092019185019061435a565b50600160a060020a03861660009081526001602090815260409091208251613e5a9260059092019184019061435a565b506000805b600160a060020a038716600090815260026020526040902060030154811015613eee57600160a060020a0387811660009081526002602052604090206003018054918a169183908110613eb457613eb4614f43565b6000918252602090912060069091020154600160a060020a031603613edc5760019150613eee565b80613ee681614f5c565b915050613e5f565b508015613f665760405160e560020a62461bcd02815260206004820152602960248201527f646f63746f7220616c7265616479207265676973746572656420696e2074686560448201527f20686f73706974616c000000000000000000000000000000000000000000000060648201526084016104f5565b6040805160c081018252600160a060020a03808a16825288811660208084018281528486018b8152606086018b9052608086018a905260a08601899052600093845260028084529684206003018054600181810183559186529484902087516006909602018054958716600160a060020a03199687161781559251908301805491909616941693909317909355905180519394859461400c93918501929091019061435a565b506060820151805161402891600384019160209091019061435a565b506080820151805161404491600484019160209091019061435a565b5060a0820151805161406091600584019160209091019061435a565b5050604051600160a060020a038a1681527f69908b2e63170aa89ef89719bbe3b4c92cccc38653968ab25f4464eff7c28ac8915060200160405180910390a15050505050505050565b60026020526000908152604090208054600182018054600160a060020a0390921692916140d590614f86565b80601f016020809104026020016040519081016040528092919081815260200182805461410190614f86565b801561414e5780601f106141235761010080835404028352916020019161414e565b820191906000526020600020905b81548152906001019060200180831161413157829003601f168201915b50505050509080600201805461416390614f86565b80601f016020809104026020016040519081016040528092919081815260200182805461418f90614f86565b80156141dc5780601f106141b1576101008083540402835291602001916141dc565b820191906000526020600020905b8154815290600101906020018083116141bf57829003601f168201915b5050505050905083565b33600081815260208190526040902054600160a060020a03161461421f5760405160e560020a62461bcd0281526004016104f59061501a565b600160a060020a038083166000818152600160205260409020548492161461425c5760405160e560020a62461bcd0281526004016104f590615088565b60005b33600090815260208190526040902060090154811015614320573360009081526020819052604090206009018054600160a060020a0386169190839081106142a9576142a9614f43565b6000918252602090912001546101009004600160a060020a03160361430e573360009081526020819052604090206009018054849190839081106142ef576142ef614f43565b6000918252602090912001805460ff1916911515919091179055614320565b8061431881614f5c565b91505061425f565b50604051600160a060020a03841681527fdeb5c31899474fe8c086c95ff9344480d19365676a6a1d22d37bb8e3e7c0ef18906020016111fc565b82805461436690614f86565b90600052602060002090601f01602090048101928261438857600085556143ce565b82601f106143a157805160ff19168380011785556143ce565b828001600101855582156143ce579182015b828111156143ce5782518255916020019190600101906143b3565b50610e589291505b80821115610e5857600081556001016143d6565b8035600160a060020a038116811461216e57600080fd5b60006020828403121561441357600080fd5b61441c826143ea565b9392505050565b6000815180845260005b818110156144495760208185018101518683018201520161442d565b8181111561445b576000602083870101525b50601f01601f19169290920160200192915050565b600160a060020a0381511682526000602082015160e0602085015261449860e0850182614423565b905060408301516040850152606083015184820360608601526144bb8282614423565b915050608083015184820360808601526144d58282614423565b91505060a083015184820360a08601526144ef8282614423565b91505060c083015184820360c08601526145098282614423565b95945050505050565b600160a060020a03831681526040602082015260006145346040830184614470565b949350505050565b600160a060020a038816815260e06020820152600061455e60e0830189614423565b87604084015282810360608401526145768188614423565b9050828103608084015261458a8187614423565b905082810360a084015261459e8186614423565b905082810360c08401526145b28185614423565b9a9950505050505050505050565b60e060020a634e487b7102600052604160045260246000fd5b600082601f8301126145ea57600080fd5b813567ffffffffffffffff80821115614605576146056145c0565b604051601f8301601f19908116603f0116810190828211818310171561462d5761462d6145c0565b8160405283815286602085880101111561464657600080fd5b836020870160208301376000602085830101528094505050505092915050565b600080600080600080600060e0888a03121561468157600080fd5b61468a886143ea565b9650602088013567ffffffffffffffff808211156146a757600080fd5b6146b38b838c016145d9565b975060408a0135965060608a01359150808211156146d057600080fd5b6146dc8b838c016145d9565b955060808a01359150808211156146f257600080fd5b6146fe8b838c016145d9565b945060a08a013591508082111561471457600080fd5b6147208b838c016145d9565b935060c08a013591508082111561473657600080fd5b506147438a828b016145d9565b91505092959891949750929550565b8035801515811461216e57600080fd5b6000806040838503121561477557600080fd5b61477e836143ea565b915061478c60208401614752565b90509250929050565b6000600160a060020a0380835116845280602084015116602085015250604082015160c060408501526147cb60c0850182614423565b9050606083015184820360608601526147e48282614423565b915050608083015184820360808601526147fe8282614423565b91505060a083015184820360a08601526145098282614423565b60208152600061441c6020830184614795565b60208152600061441c6020830184614423565b60008060006060848603121561485357600080fd5b833567ffffffffffffffff8082111561486b57600080fd5b614877878388016145d9565b9450602086013591508082111561488d57600080fd5b5061489a868287016145d9565b9250506148a9604085016143ea565b90509250925092565b60008060008060008060c087890312156148cb57600080fd5b6148d4876143ea565b9550602087013567ffffffffffffffff808211156148f157600080fd5b6148fd8a838b016145d9565b9650604089013591508082111561491357600080fd5b61491f8a838b016145d9565b9550606089013591508082111561493557600080fd5b6149418a838b016145d9565b9450608089013591508082111561495757600080fd5b5061496489828a016145d9565b92505061497360a08801614752565b90509295509295509295565b6000806040838503121561499257600080fd5b61499b836143ea565b915061478c602084016143ea565b60208082528251828201819052600091906040908185019080840286018301878501865b83811015614a4b57603f19898403018552815160a081518186526149f382870182614423565b915050888201518582038a870152614a0b8282614423565b838a0151600160a060020a03908116888c0152606080860151909116908801526080938401519390960192909252505093860193908601906001016149cd565b509098975050505050505050565b602080825282518282018190526000919060409081850190868401855b82811015614aa6578151805115158552860151600160a060020a0316868501529284019290850190600101614a76565b5091979650505050505050565b600080600060608486031215614ac857600080fd5b614ad1846143ea565b9250602084013567ffffffffffffffff80821115614aee57600080fd5b614afa878388016145d9565b93506040860135915080821115614b1057600080fd5b50614b1d868287016145d9565b9150509250925092565b6000600160a060020a03808a16835280891660208401525060e06040830152614b5360e0830188614423565b8281036060840152614b658188614423565b90508281036080840152614b798187614423565b905082810360a0840152614b8d8186614423565b91505082151560c083015298975050505050505050565b6000600160a060020a03808916835280881660208401525060c06040830152614bd060c0830187614423565b8281036060840152614be28187614423565b90508281036080840152614bf68186614423565b905082810360a0840152614c0a8185614423565b9998505050505050505050565b60208082528251828201819052600091906040908185019080840286018301878501865b83811015614a4b57603f19898403018552815160e0600160a060020a03825116855288820151614c758a870182600160a060020a03169052565b50878201518189870152614c8b82870182614423565b91505060608083015186830382880152614ca58382614423565b9250505060808083015186830382880152614cc08382614423565b9250505060a08083015186830382880152614cdb8382614423565b9250505060c0808301519250614cf48187018415159052565b509588019593505090860190600101614c3b565b60208152600061441c6020830184614470565b60006020808352600160a060020a03845116818401528084015160806040850152614d4960a0850182614423565b90506040850151601f1980868403016060870152614d678383614423565b606088015187820383016080890152805180835291945085019250848401908581028501860160005b82811015614dbc5784878303018452614daa828751614795565b95880195938801939150600101614d90565b509998505050505050505050565b60008060008060008060c08789031215614de357600080fd5b614dec876143ea565b9550614dfa602088016143ea565b9450604087013567ffffffffffffffff80821115614e1757600080fd5b614e238a838b016145d9565b95506060890135915080821115614e3957600080fd5b614e458a838b016145d9565b94506080890135915080821115614e5b57600080fd5b614e678a838b016145d9565b935060a0890135915080821115614e7d57600080fd5b50614e8a89828a016145d9565b9150509295509295509295565b600160a060020a0384168152606060208201526000614eb96060830185614423565b8281036040840152614ecb8185614423565b9695505050505050565b60208082526016908201527f53656e646572206973206e6f74206120646f63746f7200000000000000000000604082015260600190565b60208082526016908201527f50617469656e7420646f6573206e6f7420657869737400000000000000000000604082015260600190565b60e060020a634e487b7102600052603260045260246000fd5b600060018201614f7f5760e060020a634e487b7102600052601160045260246000fd5b5060010190565b600281046001821680614f9a57607f821691505b6020821081036115c05760e060020a634e487b7102600052602260045260246000fd5b60208082526023908201527f53656e646572206469646e2774206861766520456d657267656e63792041636360408201527f6573730000000000000000000000000000000000000000000000000000000000606082015260800190565b60208082526017908201527f53656e646572206973206e6f7420612070617469656e74000000000000000000604082015260600190565b60208082526016908201527f53656e646572206973206e6f7420616e2041444d494e00000000000000000000604082015260600190565b60208082526015908201527f446f63746f7220646f6573206e6f742065786973740000000000000000000000604082015260600190565b6060815260006150d26060830186614423565b600160a060020a039485166020840152929093166040909101529291505056fea26469706673582212202d38eb4558c8d1d4a1e70ec20f546e5b60f1101f16cc370f986cd7515224bcbd64736f6c634300080e0033",
  "immutableReferences": {},
  "source": "// SPDX-License-Identifier: MIT \r\npragma solidity >=0.4.22 <0.9.0;\r\n\r\n\r\n\r\ncontract EHR { \r\n  struct Record { \r\n    string cid;\r\n    string fileName; \r\n    address patientId;\r\n    address doctorId;\r\n    uint256 timeAdded;\r\n  }\r\n\r\n  struct Permission{\r\n    bool access;\r\n    address doctorId;\r\n  }\r\n\r\n  struct EmergencyAccess{\r\n    address id;\r\n    address patientId;\r\n    string name;\r\n    string relation;\r\n    string contact;\r\n    string location;\r\n    bool isAccess;\r\n  }\r\n\r\n  address private constant ADMIN = 0x3B44D6493F7866b250637b5A03c71F779Aeca741;\r\n\r\n  struct Patient {\r\n    address id;\r\n    PatientDetails details;\r\n    Record[] records;\r\n    Permission[] permissions;\r\n    EmergencyAccess[] emergencyAccess;\r\n  }\r\n\r\n  struct PatientDetails{\r\n    address id;\r\n    string name;\r\n    uint age;\r\n    string gender;\r\n    string contact;\r\n    string location;\r\n    string cause;\r\n  }\r\n\r\n  struct Doctor {\r\n    address id;\r\n    address hospitalId;\r\n    string name;\r\n    string email;\r\n    string contact;\r\n    string work;\r\n  }\r\n\r\n  struct Hospital {\r\n    address id;\r\n    string name;\r\n    string contact;\r\n    Doctor[] doctors;\r\n  }\r\n\r\n\r\n  mapping (address => Patient) public patients;\r\n  mapping (address => Doctor) public doctors;\r\n  mapping (address => Hospital) public hospitals;\r\n  mapping (address => EmergencyAccess) public emergencyPerson;\r\n  mapping (address => PatientDetails) public patientDetails;\r\n\r\n  event PatientAdded(address patientId);\r\n  event DoctorAdded(address doctorId);\r\n  event RecordAdded(string cid, address patientId, address doctorId); \r\n  event RequestAdded(address patientId);\r\n  event AccessGranted(address doctorId);\r\n  event HospitalAdded(address hospitalId);\r\n  event EmergencyAdded(address personId);\r\n  event EmergencyAccessGranted(address doctorId);\r\n  event manageEmergency(address personId);\r\n\r\n  // modifiers\r\n\r\n  modifier senderExists {\r\n    require(doctors[msg.sender].id == msg.sender || patients[msg.sender].id == msg.sender, \"Sender does not exist\");\r\n    _;\r\n  }\r\n\r\n  modifier patientExists(address patientId) {\r\n    require(patients[patientId].id == patientId, \"Patient does not exist\");\r\n    _;\r\n  }\r\n\r\n  modifier personExists(address personId){\r\n    require(emergencyPerson[personId].id == personId,\"Person does not exist\");\r\n    _;\r\n  }\r\n\r\n   modifier doctorExists(address doctorId) {\r\n    require(doctors[doctorId].id == doctorId, \"Doctor does not exist\");\r\n    _;\r\n  }\r\n\r\n  modifier senderIsPatient{\r\n    require(patients[msg.sender].id == msg.sender, \"Sender is not a patient\");\r\n    _;\r\n  }\r\n\r\n  modifier senderIsDoctor {\r\n    require(doctors[msg.sender].id == msg.sender, \"Sender is not a doctor\");\r\n    _;\r\n  }\r\n\r\n  modifier senderIsEmergencyAccess {\r\n    bool exists = false;\r\n    for(uint i = 0; i < patients[emergencyPerson[msg.sender].patientId].emergencyAccess.length; i++){\r\n      if(patients[emergencyPerson[msg.sender].patientId].emergencyAccess[i].id == msg.sender){\r\n        if(patients[emergencyPerson[msg.sender].patientId].emergencyAccess[i].isAccess == true){\r\n        exists = true;\r\n        break;\r\n      }\r\n      }\r\n    }\r\n\r\n    require(exists,\"Sender didn't have Emergency Access\");\r\n    _;\r\n  }\r\n\r\n  modifier checkAccess(address patientId){\r\n    bool access = false;\r\n    for(uint i = 0; i < patients[patientId].permissions.length; i++){\r\n      Permission memory permission = patients[patientId].permissions[i];\r\n      if(permission.doctorId == msg.sender){\r\n        if(permission.access == true){\r\n        access = true;\r\n        break;\r\n      }\r\n      }\r\n    }\r\n\r\n    require(access == true, \"Access Denied\");\r\n    _;\r\n  }\r\n\r\n  modifier checkAdmin {\r\n    require(msg.sender == ADMIN, \"Sender is not an ADMIN\");\r\n    _;\r\n  }\r\n\r\n\r\n\r\n  // functions\r\n\r\n  function addPatient(address _patientId,string memory _name,uint _age,string memory _gender,string memory _contact,string memory _location,string memory _cause) public senderIsDoctor {\r\n    require(patients[_patientId].id != _patientId, \"This patient already exists.\");\r\n    patients[_patientId].id = _patientId;\r\n    patients[_patientId].details.id = _patientId;\r\n    patients[_patientId].details.name = _name;\r\n    patients[_patientId].details.age = _age;\r\n    patients[_patientId].details.gender = _gender;\r\n    patients[_patientId].details.contact = _contact;\r\n    patients[_patientId].details.location = _location;\r\n    patients[_patientId].details.cause = _cause;\r\n\r\n\r\n\r\n    emit PatientAdded(_patientId);\r\n  }\r\n\r\n  function addEmergencyAccess(address _personId,string memory _name, string memory _relation,string memory _contact, string memory _location,bool _access) public patientExists(msg.sender) senderIsPatient {\r\n    bool exists = false;\r\n    for(uint i = 0; i < patients[msg.sender].emergencyAccess.length; i++){\r\n      if(patients[msg.sender].emergencyAccess[i].id == _personId){\r\n        if(patients[msg.sender].emergencyAccess[i].isAccess == true){\r\n          exists = true;\r\n          break;\r\n        }\r\n      }\r\n    }\r\n    require(!exists,\"person already in the Emergency Access\");\r\n    EmergencyAccess memory emergency = EmergencyAccess(_personId,msg.sender,_name,_relation,_contact,_location,_access);\r\n    emergencyPerson[_personId].id = _personId;\r\n    emergencyPerson[_personId].patientId = msg.sender;\r\n    patients[msg.sender].emergencyAccess.push(emergency);\r\n\r\n    emit EmergencyAdded(_personId);\r\n\r\n  }\r\n\r\n  function viewEmergencyAccess() public view patientExists(msg.sender) senderIsPatient returns(EmergencyAccess[] memory){\r\n    return patients[msg.sender].emergencyAccess;\r\n  } \r\n\r\n  function manageEmergencyAccess(address _personId,bool _access) public personExists(_personId) senderIsPatient{\r\n    for(uint i = 0; i < patients[msg.sender].emergencyAccess.length; i++){\r\n      if(patients[msg.sender].emergencyAccess[i].id == _personId){\r\n        patients[msg.sender].emergencyAccess[i].isAccess = _access;\r\n        break;\r\n      }\r\n    }\r\n\r\n    emit manageEmergency(_personId);\r\n  } \r\n\r\n  function giveEmergencyAccess(address _doctorId,bool _access) public senderIsEmergencyAccess doctorExists(_doctorId){\r\n    for(uint i = 0; i < patients[emergencyPerson[msg.sender].patientId].permissions.length; i++){\r\n       if(patients[emergencyPerson[msg.sender].patientId].permissions[i].doctorId == _doctorId){\r\n        patients[emergencyPerson[msg.sender].patientId].permissions[i].access = _access;\r\n        break;\r\n      }\r\n    }\r\n\r\n    emit EmergencyAccessGranted(_doctorId);\r\n  }\r\n\r\n  function getPatient(address _patientId) public view senderIsDoctor patientExists(_patientId) returns (PatientDetails memory){\r\n    PatientDetails memory patient = PatientDetails(patients[_patientId].details.id,patients[_patientId].details.name,patients[_patientId].details.age,patients[_patientId].details.gender,patients[_patientId].details.contact,patients[_patientId].details.location,patients[_patientId].details.cause);\r\n    return patient;\r\n  }\r\n\r\n  function addDoctor(address _doctorId,address _hospitalId,string memory _name,string memory _email,string memory _contact,string memory _work) public checkAdmin {\r\n    require(doctors[_doctorId].id != _doctorId, \"This doctor already exists.\");\r\n    doctors[_doctorId].id = _doctorId;\r\n    require(hospitals[_hospitalId].id == _hospitalId, \"Hospital not exists\");\r\n    doctors[_doctorId].hospitalId = _hospitalId;\r\n    doctors[_doctorId].name = _name;\r\n    doctors[_doctorId].email = _email;\r\n    doctors[_doctorId].contact = _contact;\r\n    doctors[_doctorId].work = _work;\r\n\r\n    bool exists = false;\r\n\r\n    for(uint i = 0; i < hospitals[_hospitalId].doctors.length; i++){\r\n      if(hospitals[_hospitalId].doctors[i].id == _doctorId){\r\n        exists = true;\r\n        break;\r\n      }\r\n    }\r\n\r\n    require(!exists,\"doctor already registered in the hospital\");\r\n    Doctor memory doctor = Doctor(_doctorId,_hospitalId,_name,_email,_contact,_work);\r\n    hospitals[_hospitalId].doctors.push(doctor);\r\n\r\n\r\n    emit DoctorAdded(_doctorId);\r\n  }\r\n\r\n   function getDoctor(address _doctorId) public view checkAdmin doctorExists(_doctorId) returns(Doctor memory){\r\n    Doctor memory doctor = Doctor(doctors[_doctorId].id,doctors[_doctorId].hospitalId,doctors[_doctorId].name,doctors[_doctorId].email,doctors[_doctorId].contact,doctors[_doctorId].work);\r\n    return doctor;\r\n  }\r\n\r\n  function addHospital(address _hospitalId,string memory _name,string memory _contact) public checkAdmin{\r\n    require(hospitals[_hospitalId].id != _hospitalId,\"This Hospital already exists.\");\r\n    hospitals[_hospitalId].id = _hospitalId;\r\n    hospitals[_hospitalId].name = _name;\r\n    hospitals[_hospitalId].contact = _contact;\r\n\r\n    emit HospitalAdded(_hospitalId);\r\n  }\r\n\r\n  function getHospital(address _hospitalId) public view checkAdmin returns(Hospital memory){\r\n    require(hospitals[_hospitalId].id == _hospitalId,\"hospital not exists\");\r\n    Hospital memory hospital = Hospital(hospitals[_hospitalId].id,hospitals[_hospitalId].name,hospitals[_hospitalId].contact,hospitals[_hospitalId].doctors);\r\n    return hospital;\r\n  }\r\n\r\n\r\n\r\n\r\n\r\n  function requestAccess(address _patientId) public senderIsDoctor patientExists(_patientId){\r\n    Permission memory permission = Permission(false,msg.sender);\r\n    bool exists = false;\r\n    for(uint i = 0; i < patients[_patientId].permissions.length; i++){\r\n        if(patients[_patientId].permissions[i].doctorId == permission.doctorId){\r\n          exists = true;\r\n          break;\r\n        }\r\n    }\r\n    require(!exists,\"request already exists!\");\r\n    patients[_patientId].permissions.push(permission);\r\n  \r\n\r\n    emit RequestAdded(_patientId);\r\n  }\r\n\r\n  function getRequests(address _patientId) public view patientExists(_patientId) senderIsPatient returns (Permission[] memory){\r\n    return patients[_patientId].permissions;\r\n  }\r\n  function getPatientIdEmergency() public view senderIsEmergencyAccess returns(address){\r\n    return emergencyPerson[msg.sender].patientId;\r\n  }\r\n  function getRequestsByEmergency(address _patientId) public view patientExists(_patientId) senderIsEmergencyAccess returns (Permission[] memory){\r\n    return patients[_patientId].permissions;\r\n  }\r\n\r\n  function grantAccess(address _doctorId,bool _access) public senderIsPatient doctorExists(_doctorId){\r\n    for(uint i = 0; i < patients[msg.sender].permissions.length; i++){\r\n      if(patients[msg.sender].permissions[i].doctorId == _doctorId){\r\n        patients[msg.sender].permissions[i].access = _access;\r\n        break;\r\n      }\r\n    }\r\n\r\n    emit AccessGranted(_doctorId);\r\n  }\r\n\r\n  function verifyAccess(address _patientId,address _doctorId) public view senderIsDoctor patientExists(_patientId) returns (bool){\r\n     bool access = false;\r\n    for(uint i = 0; i < patients[_patientId].permissions.length; i++){\r\n      if(patients[_patientId].permissions[i].doctorId == _doctorId){\r\n        if(patients[_patientId].permissions[i].access == true){\r\n        access = true;\r\n        break;\r\n      }\r\n      }\r\n    }\r\n    return access;\r\n  }\r\n\r\n  function addRecord(string memory _cid, string memory _fileName, address _patientId) public senderIsDoctor patientExists(_patientId) checkAccess(_patientId) {\r\n    Record memory record = Record(_cid, _fileName, _patientId, msg.sender, block.timestamp);\r\n    patients[_patientId].records.push(record); \r\n\r\n    emit RecordAdded(_cid, _patientId, msg.sender);\r\n  } \r\n\r\n  function getRecords(address _patientId) public view patientExists(_patientId) returns (Record[] memory) {\r\n    return patients[_patientId].records;\r\n  } \r\n\r\n  function getRecordsDoctor(address _patientId) public view senderIsDoctor patientExists(_patientId) returns (Record[] memory){\r\n    return patients[_patientId].records;\r\n  }\r\n\r\n  function getSenderRole() public view returns (string memory) {\r\n    if (doctors[msg.sender].id == msg.sender) {\r\n      return \"doctor\";\r\n    } else if (patients[msg.sender].id == msg.sender) {\r\n      return \"patient\";\r\n    } else if (msg.sender == ADMIN){\r\n      return \"admin\";\r\n    } else if(hospitals[msg.sender].id == msg.sender){\r\n      return \"hospital\";\r\n    } else if(emergencyPerson[msg.sender].id == msg.sender){\r\n      return \"emergencyPerson\";\r\n    } else {\r\n      return \"unknown\";\r\n    }\r\n  }\r\n\r\n  function getPatientExists(address _patientId) public view senderIsDoctor returns (bool) {\r\n    return patients[_patientId].id == _patientId;\r\n  }\r\n   function getHospitalExists(address _hospitalId) public view checkAdmin returns (bool) {\r\n    return hospitals[_hospitalId].id == _hospitalId;\r\n  }\r\n   function getDoctorExists(address _doctorId) public view checkAdmin returns (bool) {\r\n    return doctors[_doctorId].id == _doctorId;\r\n  }\r\n} \r\n",
  "sourcePath": "R:\\CryptoCare\\truffle\\contracts\\EHR.sol",
  "compiler": {
    "name": "solc",
    "version": "0.8.14+commit.80d49f37.Emscripten.clang"
  },
  "schemaVersion": "3.4.16",
  "updatedAt": "2024-04-09T09:40:22.384Z",
  "networkType": "ethereum",
  "devdoc": {
    "kind": "dev",
    "methods": {},
    "version": 1
  },
  "userdoc": {
    "kind": "user",
    "methods": {},
    "version": 1
  }
}